{
  "contractName": "CardERC20Wrapper",
  "abi": [
    {
      "anonymous": false,
      "inputs": [
        {
          "indexed": true,
          "internalType": "address",
          "name": "owner",
          "type": "address"
        },
        {
          "indexed": true,
          "internalType": "address",
          "name": "spender",
          "type": "address"
        },
        {
          "indexed": false,
          "internalType": "uint256",
          "name": "value",
          "type": "uint256"
        }
      ],
      "name": "Approval",
      "type": "event"
    },
    {
      "anonymous": false,
      "inputs": [
        {
          "indexed": true,
          "internalType": "address",
          "name": "account",
          "type": "address"
        }
      ],
      "name": "MinterAdded",
      "type": "event"
    },
    {
      "anonymous": false,
      "inputs": [
        {
          "indexed": true,
          "internalType": "address",
          "name": "account",
          "type": "address"
        }
      ],
      "name": "MinterRemoved",
      "type": "event"
    },
    {
      "anonymous": false,
      "inputs": [
        {
          "indexed": true,
          "internalType": "address",
          "name": "from",
          "type": "address"
        },
        {
          "indexed": true,
          "internalType": "address",
          "name": "to",
          "type": "address"
        },
        {
          "indexed": false,
          "internalType": "uint256",
          "name": "value",
          "type": "uint256"
        }
      ],
      "name": "Transfer",
      "type": "event"
    },
    {
      "constant": false,
      "inputs": [
        {
          "internalType": "address",
          "name": "account",
          "type": "address"
        }
      ],
      "name": "addMinter",
      "outputs": [],
      "payable": false,
      "stateMutability": "nonpayable",
      "type": "function"
    },
    {
      "constant": false,
      "inputs": [
        {
          "internalType": "address",
          "name": "spender",
          "type": "address"
        },
        {
          "internalType": "uint256",
          "name": "amount",
          "type": "uint256"
        }
      ],
      "name": "approve",
      "outputs": [
        {
          "internalType": "bool",
          "name": "",
          "type": "bool"
        }
      ],
      "payable": false,
      "stateMutability": "nonpayable",
      "type": "function"
    },
    {
      "constant": true,
      "inputs": [
        {
          "internalType": "address",
          "name": "account",
          "type": "address"
        }
      ],
      "name": "balanceOf",
      "outputs": [
        {
          "internalType": "uint256",
          "name": "",
          "type": "uint256"
        }
      ],
      "payable": false,
      "stateMutability": "view",
      "type": "function"
    },
    {
      "constant": false,
      "inputs": [
        {
          "internalType": "uint256",
          "name": "amount",
          "type": "uint256"
        }
      ],
      "name": "burn",
      "outputs": [],
      "payable": false,
      "stateMutability": "nonpayable",
      "type": "function"
    },
    {
      "constant": false,
      "inputs": [
        {
          "internalType": "address",
          "name": "account",
          "type": "address"
        },
        {
          "internalType": "uint256",
          "name": "amount",
          "type": "uint256"
        }
      ],
      "name": "burnFrom",
      "outputs": [],
      "payable": false,
      "stateMutability": "nonpayable",
      "type": "function"
    },
    {
      "constant": true,
      "inputs": [],
      "name": "cardWrapperFactory",
      "outputs": [
        {
          "internalType": "contract CardERC20WrapperFactory",
          "name": "",
          "type": "address"
        }
      ],
      "payable": false,
      "stateMutability": "view",
      "type": "function"
    },
    {
      "constant": true,
      "inputs": [],
      "name": "cards",
      "outputs": [
        {
          "internalType": "contract ICards",
          "name": "",
          "type": "address"
        }
      ],
      "payable": false,
      "stateMutability": "view",
      "type": "function"
    },
    {
      "constant": true,
      "inputs": [],
      "name": "decimals",
      "outputs": [
        {
          "internalType": "uint256",
          "name": "",
          "type": "uint256"
        }
      ],
      "payable": false,
      "stateMutability": "view",
      "type": "function"
    },
    {
      "constant": false,
      "inputs": [
        {
          "internalType": "address",
          "name": "spender",
          "type": "address"
        },
        {
          "internalType": "uint256",
          "name": "subtractedValue",
          "type": "uint256"
        }
      ],
      "name": "decreaseAllowance",
      "outputs": [
        {
          "internalType": "bool",
          "name": "",
          "type": "bool"
        }
      ],
      "payable": false,
      "stateMutability": "nonpayable",
      "type": "function"
    },
    {
      "constant": true,
      "inputs": [
        {
          "internalType": "uint256",
          "name": "",
          "type": "uint256"
        }
      ],
      "name": "depositedCards",
      "outputs": [
        {
          "internalType": "uint256",
          "name": "",
          "type": "uint256"
        }
      ],
      "payable": false,
      "stateMutability": "view",
      "type": "function"
    },
    {
      "constant": false,
      "inputs": [
        {
          "internalType": "address",
          "name": "spender",
          "type": "address"
        },
        {
          "internalType": "uint256",
          "name": "addedValue",
          "type": "uint256"
        }
      ],
      "name": "increaseAllowance",
      "outputs": [
        {
          "internalType": "bool",
          "name": "",
          "type": "bool"
        }
      ],
      "payable": false,
      "stateMutability": "nonpayable",
      "type": "function"
    },
    {
      "constant": true,
      "inputs": [
        {
          "internalType": "address",
          "name": "account",
          "type": "address"
        }
      ],
      "name": "isMinter",
      "outputs": [
        {
          "internalType": "bool",
          "name": "",
          "type": "bool"
        }
      ],
      "payable": false,
      "stateMutability": "view",
      "type": "function"
    },
    {
      "constant": false,
      "inputs": [
        {
          "internalType": "address",
          "name": "account",
          "type": "address"
        },
        {
          "internalType": "uint256",
          "name": "amount",
          "type": "uint256"
        }
      ],
      "name": "mint",
      "outputs": [
        {
          "internalType": "bool",
          "name": "",
          "type": "bool"
        }
      ],
      "payable": false,
      "stateMutability": "nonpayable",
      "type": "function"
    },
    {
      "constant": true,
      "inputs": [],
      "name": "name",
      "outputs": [
        {
          "internalType": "string",
          "name": "",
          "type": "string"
        }
      ],
      "payable": false,
      "stateMutability": "view",
      "type": "function"
    },
    {
      "constant": true,
      "inputs": [],
      "name": "proto",
      "outputs": [
        {
          "internalType": "uint16",
          "name": "",
          "type": "uint16"
        }
      ],
      "payable": false,
      "stateMutability": "view",
      "type": "function"
    },
    {
      "constant": true,
      "inputs": [],
      "name": "quality",
      "outputs": [
        {
          "internalType": "uint8",
          "name": "",
          "type": "uint8"
        }
      ],
      "payable": false,
      "stateMutability": "view",
      "type": "function"
    },
    {
      "constant": false,
      "inputs": [],
      "name": "renounceMinter",
      "outputs": [],
      "payable": false,
      "stateMutability": "nonpayable",
      "type": "function"
    },
    {
      "constant": true,
      "inputs": [],
      "name": "symbol",
      "outputs": [
        {
          "internalType": "string",
          "name": "",
          "type": "string"
        }
      ],
      "payable": false,
      "stateMutability": "view",
      "type": "function"
    },
    {
      "constant": true,
      "inputs": [],
      "name": "totalSupply",
      "outputs": [
        {
          "internalType": "uint256",
          "name": "",
          "type": "uint256"
        }
      ],
      "payable": false,
      "stateMutability": "view",
      "type": "function"
    },
    {
      "constant": false,
      "inputs": [
        {
          "internalType": "address",
          "name": "recipient",
          "type": "address"
        },
        {
          "internalType": "uint256",
          "name": "amount",
          "type": "uint256"
        }
      ],
      "name": "transfer",
      "outputs": [
        {
          "internalType": "bool",
          "name": "",
          "type": "bool"
        }
      ],
      "payable": false,
      "stateMutability": "nonpayable",
      "type": "function"
    },
    {
      "constant": true,
      "inputs": [],
      "name": "uniswapExchange",
      "outputs": [
        {
          "internalType": "contract IUniswapExchange",
          "name": "",
          "type": "address"
        }
      ],
      "payable": false,
      "stateMutability": "view",
      "type": "function"
    },
    {
      "constant": true,
      "inputs": [],
      "name": "withdrawnCardCount",
      "outputs": [
        {
          "internalType": "uint256",
          "name": "",
          "type": "uint256"
        }
      ],
      "payable": false,
      "stateMutability": "view",
      "type": "function"
    },
    {
      "constant": false,
      "inputs": [
        {
          "internalType": "contract ICards",
          "name": "_cards",
          "type": "address"
        },
        {
          "internalType": "uint16",
          "name": "_proto",
          "type": "uint16"
        },
        {
          "internalType": "uint8",
          "name": "_quality",
          "type": "uint8"
        },
        {
          "internalType": "contract IUniswapExchange",
          "name": "_uniswapExchange",
          "type": "address"
        }
      ],
      "name": "init",
      "outputs": [],
      "payable": false,
      "stateMutability": "nonpayable",
      "type": "function"
    },
    {
      "constant": false,
      "inputs": [
        {
          "internalType": "uint256[]",
          "name": "cardIds",
          "type": "uint256[]"
        },
        {
          "internalType": "address",
          "name": "receiver",
          "type": "address"
        }
      ],
      "name": "depositCardsAndMintTokens",
      "outputs": [],
      "payable": false,
      "stateMutability": "nonpayable",
      "type": "function"
    },
    {
      "constant": false,
      "inputs": [
        {
          "internalType": "uint256",
          "name": "amount",
          "type": "uint256"
        },
        {
          "internalType": "address",
          "name": "receiver",
          "type": "address"
        }
      ],
      "name": "burnTokensAndWithdrawCards",
      "outputs": [],
      "payable": false,
      "stateMutability": "nonpayable",
      "type": "function"
    },
    {
      "constant": false,
      "inputs": [
        {
          "internalType": "address",
          "name": "sender",
          "type": "address"
        },
        {
          "internalType": "address",
          "name": "recipient",
          "type": "address"
        },
        {
          "internalType": "uint256",
          "name": "amount",
          "type": "uint256"
        }
      ],
      "name": "transferFrom",
      "outputs": [
        {
          "internalType": "bool",
          "name": "",
          "type": "bool"
        }
      ],
      "payable": false,
      "stateMutability": "nonpayable",
      "type": "function"
    },
    {
      "constant": true,
      "inputs": [
        {
          "internalType": "address",
          "name": "owner",
          "type": "address"
        },
        {
          "internalType": "address",
          "name": "spender",
          "type": "address"
        }
      ],
      "name": "allowance",
      "outputs": [
        {
          "internalType": "uint256",
          "name": "",
          "type": "uint256"
        }
      ],
      "payable": false,
      "stateMutability": "view",
      "type": "function"
    }
  ],
  "bytecode": "0x60806040526200002a6200001b6001600160e01b036200003016565b6001600160e01b036200003416565b620001b0565b3390565b6200004f8160036200008660201b620014d41790919060201c565b6040516001600160a01b038216907f6ae172837ea30b801fbfcdd4108aa1d5bf8ff775444fd70256b44e6bf3dfc3f690600090a250565b6200009b82826001600160e01b036200012d16565b156200010857604080517f08c379a000000000000000000000000000000000000000000000000000000000815260206004820152601f60248201527f526f6c65733a206163636f756e7420616c72656164792068617320726f6c6500604482015290519081900360640190fd5b6001600160a01b0316600090815260209190915260409020805460ff19166001179055565b60006001600160a01b03821662000190576040517f08c379a000000000000000000000000000000000000000000000000000000000815260040180806020018281038252602281526020018062001a006022913960400191505060405180910390fd5b506001600160a01b03166000908152602091909152604090205460ff1690565b61184080620001c06000396000f3fe608060405234801561001057600080fd5b50600436106101b95760003560e01c806362b856b5116100f9578063a457c2d711610097578063d4eb30f811610071578063d4eb30f81461057b578063dd62ed3e146105bc578063f6824b44146105ea578063f8875a01146105f2576101b9565b8063a457c2d7146104fd578063a9059cbb14610529578063aa271e1a14610555576101b9565b806388dd3886116100d357806388dd3886146104a957806395d89b41146104c7578063983b2d56146104cf57806398650275146104f5576101b9565b806362b856b51461044f57806370a082311461045757806379cc67901461047d576101b9565b8063313ce5671161016657806342966c681161014057806342966c68146103c3578063465776f7146103e057806351c6ff671461040c57806358a4903f1461042b576101b9565b8063313ce56714610363578063395093511461036b57806340c10f1914610397576101b9565b8063176b5d0211610197578063176b5d02146102f657806318160ddd1461032557806323b872dd1461032d576101b9565b806306fdde03146101be578063095ea7b31461023b5780630e4fae5f1461027b575b600080fd5b6101c66105fa565b6040805160208082528351818301528351919283929083019185019080838360005b838110156102005781810151838201526020016101e8565b50505050905090810190601f16801561022d5780820380516001836020036101000a031916815260200191505b509250505060405180910390f35b6102676004803603604081101561025157600080fd5b506001600160a01b038135169060200135610633565b604080519115158252519081900360200190f35b6102f46004803603604081101561029157600080fd5b8101906020810181356401000000008111156102ac57600080fd5b8201836020820111156102be57600080fd5b803590602001918460208302840111640100000000831117156102e057600080fd5b9193509150356001600160a01b0316610651565b005b6103136004803603602081101561030c57600080fd5b503561087a565b60408051918252519081900360200190f35b610313610898565b6102676004803603606081101561034357600080fd5b506001600160a01b0381358116916020810135909116906040013561089f565b610313610902565b6102676004803603604081101561038157600080fd5b506001600160a01b038135169060200135610907565b610267600480360360408110156103ad57600080fd5b506001600160a01b03813516906020013561095b565b6102f4600480360360208110156103d957600080fd5b50356109b2565b6102f4600480360360408110156103f657600080fd5b50803590602001356001600160a01b03166109c6565b610414610acb565b6040805161ffff9092168252519081900360200190f35b610433610adc565b604080516001600160a01b039092168252519081900360200190f35b610433610aeb565b6103136004803603602081101561046d57600080fd5b50356001600160a01b0316610afa565b6102f46004803603604081101561049357600080fd5b506001600160a01b038135169060200135610b15565b6104b1610b23565b6040805160ff9092168252519081900360200190f35b6101c6610b33565b6102f4600480360360208110156104e557600080fd5b50356001600160a01b0316610b6c565b6102f4610bbb565b6102676004803603604081101561051357600080fd5b506001600160a01b038135169060200135610bcd565b6102676004803603604081101561053f57600080fd5b506001600160a01b038135169060200135610c3b565b6102676004803603602081101561056b57600080fd5b50356001600160a01b0316610c4f565b6102f46004803603608081101561059157600080fd5b506001600160a01b03813581169161ffff6020820135169160ff604083013516916060013516610c62565b610313600480360360408110156105d257600080fd5b506001600160a01b0381358116916020013516610d84565b610313610db7565b610433610dbd565b6040518060400160405280601c81526020017f5772617070656420476f647320556e636861696e65642043617264730000000081525081565b6000610647610640610dcc565b8484610dd0565b5060015b92915050565b6006546040517f0bbe0ee300000000000000000000000000000000000000000000000000000000815233600482018181523060248401819052606060448501908152606485018890526001600160a01b0390951694630bbe0ee39491928992899290608401846020850280828437600081840152601f19601f82011690508083019250505095505050505050600060405180830381600087803b1580156106f757600080fd5b505af115801561070b573d6000803e3d6000fd5b50505050600080600061071c610898565b60085490915060005b8681101561085c576004546001600160a01b031663b93a89f789898481811061074a57fe5b905060200201356040518263ffffffff1660e01b815260040180828152602001915050604080518083038186803b15801561078457600080fd5b505afa158015610798573d6000803e3d6000fd5b505050506040513d60408110156107ae57600080fd5b508051602090910151600654919650945061ffff808716600160a01b909204161480156107e9575060065460ff858116600160b01b90920416145b6108245760405162461bcd60e51b815260040180806020018281038252602d8152602001806117ba602d913960400191505060405180910390fd5b87878281811061083057fe5b90506020020135600782848601018154811061084857fe5b600091825260209091200155600101610725565b5061087185670de0b6b3a76400008802610ebc565b50505050505050565b6007818154811061088757fe5b600091825260209091200154905081565b6002545b90565b60006108ac848484610fac565b6108f8846108b8610dcc565b6108f3856040518060600160405280602881526020016116e2602891396108e68a6108e1610dcc565b610d84565b919063ffffffff61110816565b610dd0565b5060019392505050565b601281565b6000610647610914610dcc565b846108f38560016000610925610dcc565b6001600160a01b03908116825260208083019390935260409182016000908120918c16815292529020549063ffffffff61119f16565b600061096d610968610dcc565b610c4f565b6109a85760405162461bcd60e51b81526004018080602001828103825260308152602001806116916030913960400191505060405180910390fd5b6106478383610ebc565b6109c36109bd610dcc565b826111f9565b50565b6109da33670de0b6b3a764000084026111f9565b6008545b8260085401811015610abe57600454600780546001600160a01b03909216916323b872dd91309186919086908110610a1257fe5b6000918252602082200154604080517fffffffff0000000000000000000000000000000000000000000000000000000060e088901b1681526001600160a01b039586166004820152939094166024840152604483015291516064808301939282900301818387803b158015610a8657600080fd5b505af1158015610a9a573d6000803e3d6000fd5b5050505060078181548110610aab57fe5b60009182526020822001556001016109de565b5050600880549091019055565b600654600160a01b900461ffff1681565b6004546001600160a01b031681565b6005546001600160a01b031681565b6001600160a01b031660009081526020819052604090205490565b610b1f82826112f5565b5050565b600654600160b01b900460ff1681565b6040518060400160405280600381526020017f574755000000000000000000000000000000000000000000000000000000000081525081565b610b77610968610dcc565b610bb25760405162461bcd60e51b81526004018080602001828103825260308152602001806116916030913960400191505060405180910390fd5b6109c381611370565b610bcb610bc6610dcc565b6113b8565b565b6000610647610bda610dcc565b846108f3856040518060600160405280602581526020016117e76025913960016000610c04610dcc565b6001600160a01b03908116825260208083019390935260409182016000908120918d1681529252902054919063ffffffff61110816565b6000610647610c48610dcc565b8484610fac565b600061064b60038363ffffffff61140016565b6006546001600160a01b031615610cc0576040805162461bcd60e51b815260206004820152601f60248201527f43617264577261707065723a416c726561647920696e697469616c697a656400604482015290519081900360640190fd5b60068054600580547fffffffffffffffffffffffff00000000000000000000000000000000000000009081166001600160a01b038681169190911790925560048054821692891692909217909155339116177fffffffffffffffffffff0000ffffffffffffffffffffffffffffffffffffffff16600160a01b61ffff861602177fffffffffffffffffff00ffffffffffffffffffffffffffffffffffffffffffff16600160b01b60ff851602179055600019610d7d6007826115bc565b5050505050565b6005546000906001600160a01b0383811691161415610da6575060001961064b565b610db08383611467565b9392505050565b60085481565b6006546001600160a01b031681565b3390565b6001600160a01b038316610e155760405162461bcd60e51b81526004018080602001828103825260248152602001806117966024913960400191505060405180910390fd5b6001600160a01b038216610e5a5760405162461bcd60e51b81526004018080602001828103825260228152602001806116496022913960400191505060405180910390fd5b6001600160a01b03808416600081815260016020908152604080832094871680845294825291829020859055815185815291517f8c5be1e5ebec7d5bd14f71427d1e84f3dd0314c0f7b2291e5b200ac8c7c3b9259281900390910190a3505050565b6001600160a01b038216610f17576040805162461bcd60e51b815260206004820152601f60248201527f45524332303a206d696e7420746f20746865207a65726f206164647265737300604482015290519081900360640190fd5b600254610f2a908263ffffffff61119f16565b6002556001600160a01b038216600090815260208190526040902054610f56908263ffffffff61119f16565b6001600160a01b0383166000818152602081815260408083209490945583518581529351929391927fddf252ad1be2c89b69c2b068fc378daa952ba7f163c4a11628f55a4df523b3ef9281900390910190a35050565b6001600160a01b038316610ff15760405162461bcd60e51b81526004018080602001828103825260258152602001806117716025913960400191505060405180910390fd5b6001600160a01b0382166110365760405162461bcd60e51b81526004018080602001828103825260238152602001806116046023913960400191505060405180910390fd5b6110798160405180606001604052806026815260200161166b602691396001600160a01b038616600090815260208190526040902054919063ffffffff61110816565b6001600160a01b0380851660009081526020819052604080822093909355908416815220546110ae908263ffffffff61119f16565b6001600160a01b038084166000818152602081815260409182902094909455805185815290519193928716927fddf252ad1be2c89b69c2b068fc378daa952ba7f163c4a11628f55a4df523b3ef92918290030190a3505050565b600081848411156111975760405162461bcd60e51b81526004018080602001828103825283818151815260200191508051906020019080838360005b8381101561115c578181015183820152602001611144565b50505050905090810190601f1680156111895780820380516001836020036101000a031916815260200191505b509250505060405180910390fd5b505050900390565b600082820183811015610db0576040805162461bcd60e51b815260206004820152601b60248201527f536166654d6174683a206164646974696f6e206f766572666c6f770000000000604482015290519081900360640190fd5b6001600160a01b03821661123e5760405162461bcd60e51b81526004018080602001828103825260218152602001806117506021913960400191505060405180910390fd5b61128181604051806060016040528060228152602001611627602291396001600160a01b038516600090815260208190526040902054919063ffffffff61110816565b6001600160a01b0383166000908152602081905260409020556002546112ad908263ffffffff61149216565b6002556040805182815290516000916001600160a01b038516917fddf252ad1be2c89b69c2b068fc378daa952ba7f163c4a11628f55a4df523b3ef9181900360200190a35050565b6112ff82826111f9565b610b1f8261130b610dcc565b6108f38460405180606001604052806024815260200161172c602491396001600160a01b038816600090815260016020526040812090611349610dcc565b6001600160a01b03168152602081019190915260400160002054919063ffffffff61110816565b61138160038263ffffffff6114d416565b6040516001600160a01b038216907f6ae172837ea30b801fbfcdd4108aa1d5bf8ff775444fd70256b44e6bf3dfc3f690600090a250565b6113c960038263ffffffff61155516565b6040516001600160a01b038216907fe94479a9f7e1952cc78f2d6baab678adc1b772d936c6583def489e524cb6669290600090a250565b60006001600160a01b0382166114475760405162461bcd60e51b815260040180806020018281038252602281526020018061170a6022913960400191505060405180910390fd5b506001600160a01b03166000908152602091909152604090205460ff1690565b6001600160a01b03918216600090815260016020908152604080832093909416825291909152205490565b6000610db083836040518060400160405280601e81526020017f536166654d6174683a207375627472616374696f6e206f766572666c6f770000815250611108565b6114de8282611400565b15611530576040805162461bcd60e51b815260206004820152601f60248201527f526f6c65733a206163636f756e7420616c72656164792068617320726f6c6500604482015290519081900360640190fd5b6001600160a01b0316600090815260209190915260409020805460ff19166001179055565b61155f8282611400565b61159a5760405162461bcd60e51b81526004018080602001828103825260218152602001806116c16021913960400191505060405180910390fd5b6001600160a01b0316600090815260209190915260409020805460ff19169055565b8154818355818111156115e0576000838152602090206115e09181019083016115e5565b505050565b61089c91905b808211156115ff57600081556001016115eb565b509056fe45524332303a207472616e7366657220746f20746865207a65726f206164647265737345524332303a206275726e20616d6f756e7420657863656564732062616c616e636545524332303a20617070726f766520746f20746865207a65726f206164647265737345524332303a207472616e7366657220616d6f756e7420657863656564732062616c616e63654d696e746572526f6c653a2063616c6c657220646f6573206e6f74206861766520746865204d696e74657220726f6c65526f6c65733a206163636f756e7420646f6573206e6f74206861766520726f6c6545524332303a207472616e7366657220616d6f756e74206578636565647320616c6c6f77616e6365526f6c65733a206163636f756e7420697320746865207a65726f206164647265737345524332303a206275726e20616d6f756e74206578636565647320616c6c6f77616e636545524332303a206275726e2066726f6d20746865207a65726f206164647265737345524332303a207472616e736665722066726f6d20746865207a65726f206164647265737345524332303a20617070726f76652066726f6d20746865207a65726f206164647265737343617264577261707065723a436172642068617320696e76616c69642070726f746f206f72207175616c69747945524332303a2064656372656173656420616c6c6f77616e63652062656c6f77207a65726fa265627a7a723158202c0df7ada36d84e5a53069ce27bb544247c63c2b28859183116bce00f5b8558e64736f6c634300050c0032526f6c65733a206163636f756e7420697320746865207a65726f2061646472657373",
  "source": "pragma solidity 0.5.12;\n\nimport '@openzeppelin/contracts/token/ERC20/ERC20Burnable.sol';\nimport '@openzeppelin/contracts/token/ERC20/ERC20Mintable.sol';\n\nimport './interfaces/ICards.sol';\nimport './interfaces/IUniswapExchange.sol';\n\nimport './CardERC20WrapperFactory.sol';\n\ncontract CardERC20Wrapper is ERC20Burnable, ERC20Mintable {\n\n    ICards                  public          cards;\n    IUniswapExchange        public          uniswapExchange;\n    CardERC20WrapperFactory public          cardWrapperFactory;\n    uint16                  public          proto;\n    uint8                   public          quality;\n    uint256[]               public          depositedCards;\n    uint256                 public          withdrawnCardCount;\n\n    uint256                 public constant decimals = 18;\n    string                  public constant name     = 'Wrapped Gods Unchained Cards';\n    string                  public constant symbol   = 'WGU';\n\n    /**\n     * Initializes this wrapper contract\n     * \n     * Should set cards, proto, quality, and uniswap exchange\n     *\n     * Should fail if already initialized by checking if cardWrapperFatory is set\n     *\n     */\n    function init(ICards _cards, uint16 _proto, uint8 _quality, IUniswapExchange _uniswapExchange) public {\n        require(address(cardWrapperFactory) == address(0x0), 'CardWrapper:Already initialized');\n        cardWrapperFactory = CardERC20WrapperFactory(msg.sender);\n        uniswapExchange = _uniswapExchange;\n        cards = _cards;\n        proto = _proto;\n        quality = _quality;\n        depositedCards.length = uint(-1);\n    }\n\n    function depositCardsAndMintTokens(uint256[] calldata cardIds, address receiver) external {\n        cardWrapperFactory.transferAllFrom(msg.sender, address(this), cardIds);\n\n        uint16 currentCardProto;\n        uint8 currentCardQuality;\n\n        uint256 currentSupply = totalSupply();\n        uint256 currentWithdrawnCardCount = withdrawnCardCount;\n\n        for(uint256 index = 0; index < cardIds.length; index++){\n            (currentCardProto, currentCardQuality) = cards.getDetails(cardIds[index]);\n\n            require(currentCardProto == proto && currentCardQuality == quality, 'CardWrapper:Card has invalid proto or quality');\n\n            depositedCards[currentSupply + currentWithdrawnCardCount + index] = cardIds[index];\n        }\n        _mint(receiver, cardIds.length * (10**uint256(decimals)));\n    }\n\n    function burnTokensAndWithdrawCards(uint256 amount, address receiver) external {\n        _burn(msg.sender, amount * (10**uint256(decimals)));\n        for(uint256 index = withdrawnCardCount; index < withdrawnCardCount + amount; index++){\n            cards.transferFrom(address(this), receiver, depositedCards[index]);\n            delete depositedCards[index];\n        }\n        withdrawnCardCount += amount;\n    }\n\n     /**\n     * @dev See {IERC20-transferFrom}.\n     *\n     * Copied from the OpenZeppelin ERC20 contract and modified to use\n     * the allowance function instead of the _allowances mapping\n     *\n     * Requirements:\n     * - `sender` and `recipient` cannot be the zero address.\n     * - `sender` must have a balance of at least `amount`.\n     * - the caller must have allowance for `sender`'s tokens of at least\n     * `amount`.\n     */\n    function transferFrom(address sender, address recipient, uint256 amount) public returns (bool) {\n        _transfer(sender, recipient, amount);\n        _approve(sender, _msgSender(), allowance(sender,_msgSender()).sub(amount, \"ERC20: transfer amount exceeds allowance\"));\n        return true;\n    }\n\n    /**\n     * @dev Automatic infinite approval for Uniswap\n     */\n    function allowance(address owner, address spender) public view returns (uint256) {\n        if(spender == address(uniswapExchange)){\n            return uint(-1);\n        }\n        return super.allowance(owner, spender);\n    }\n}",
  "sourcePath": "/home/nate/workspace/gu-uniswap/contracts/contracts/CardERC20Wrapper.sol",
  "compiler": {
    "name": "solc",
    "version": "0.5.12+commit.7709ece9.Emscripten.clang"
  },
  "schemaVersion": "3.0.19",
  "updatedAt": "2019-12-02T17:58:55.286Z",
  "networkType": "ethereum",
  "devdoc": {
    "methods": {
      "allowance(address,address)": {
        "details": "Automatic infinite approval for Uniswap"
      },
      "approve(address,uint256)": {
        "details": "See {IERC20-approve}.     * Requirements:     * - `spender` cannot be the zero address."
      },
      "balanceOf(address)": {
        "details": "See {IERC20-balanceOf}."
      },
      "burn(uint256)": {
        "details": "Destroys `amount` tokens from the caller.     * See {ERC20-_burn}."
      },
      "burnFrom(address,uint256)": {
        "details": "See {ERC20-_burnFrom}."
      },
      "decreaseAllowance(address,uint256)": {
        "details": "Atomically decreases the allowance granted to `spender` by the caller.     * This is an alternative to {approve} that can be used as a mitigation for problems described in {IERC20-approve}.     * Emits an {Approval} event indicating the updated allowance.     * Requirements:     * - `spender` cannot be the zero address. - `spender` must have allowance for the caller of at least `subtractedValue`."
      },
      "increaseAllowance(address,uint256)": {
        "details": "Atomically increases the allowance granted to `spender` by the caller.     * This is an alternative to {approve} that can be used as a mitigation for problems described in {IERC20-approve}.     * Emits an {Approval} event indicating the updated allowance.     * Requirements:     * - `spender` cannot be the zero address."
      },
      "mint(address,uint256)": {
        "details": "See {ERC20-_mint}.     * Requirements:     * - the caller must have the {MinterRole}."
      },
      "totalSupply()": {
        "details": "See {IERC20-totalSupply}."
      },
      "transfer(address,uint256)": {
        "details": "See {IERC20-transfer}.     * Requirements:     * - `recipient` cannot be the zero address. - the caller must have a balance of at least `amount`."
      },
      "transferFrom(address,address,uint256)": {
        "details": "See {IERC20-transferFrom}.     * Copied from the OpenZeppelin ERC20 contract and modified to use the allowance function instead of the _allowances mapping     * Requirements: - `sender` and `recipient` cannot be the zero address. - `sender` must have a balance of at least `amount`. - the caller must have allowance for `sender`'s tokens of at least `amount`."
      }
    }
  },
  "userdoc": {
    "methods": {
      "init(address,uint16,uint8,address)": {
        "notice": "Initializes this wrapper contract      * Should set cards, proto, quality, and uniswap exchange     * Should fail if already initialized by checking if cardWrapperFatory is set     "
      }
    }
  }
}