{
  "contractName": "CardERC20WrapperFactory",
  "abi": [
    {
      "inputs": [
        {
          "internalType": "address",
          "name": "_target",
          "type": "address"
        },
        {
          "internalType": "contract ICards",
          "name": "_cards",
          "type": "address"
        },
        {
          "internalType": "contract IUniswapFactory",
          "name": "_uniswapFactory",
          "type": "address"
        }
      ],
      "payable": false,
      "stateMutability": "nonpayable",
      "type": "constructor"
    },
    {
      "anonymous": false,
      "inputs": [
        {
          "indexed": true,
          "internalType": "uint16",
          "name": "proto",
          "type": "uint16"
        },
        {
          "indexed": true,
          "internalType": "uint8",
          "name": "quality",
          "type": "uint8"
        },
        {
          "indexed": true,
          "internalType": "address",
          "name": "tokenAddress",
          "type": "address"
        }
      ],
      "name": "WrapperCreated",
      "type": "event"
    },
    {
      "constant": true,
      "inputs": [],
      "name": "cards",
      "outputs": [
        {
          "internalType": "contract ICards",
          "name": "",
          "type": "address"
        }
      ],
      "payable": false,
      "stateMutability": "view",
      "type": "function"
    },
    {
      "constant": true,
      "inputs": [],
      "name": "target",
      "outputs": [
        {
          "internalType": "address",
          "name": "",
          "type": "address"
        }
      ],
      "payable": false,
      "stateMutability": "view",
      "type": "function"
    },
    {
      "constant": true,
      "inputs": [],
      "name": "uniswapFactory",
      "outputs": [
        {
          "internalType": "contract IUniswapFactory",
          "name": "",
          "type": "address"
        }
      ],
      "payable": false,
      "stateMutability": "view",
      "type": "function"
    },
    {
      "constant": false,
      "inputs": [
        {
          "internalType": "uint16",
          "name": "proto",
          "type": "uint16"
        },
        {
          "internalType": "uint8",
          "name": "quality",
          "type": "uint8"
        }
      ],
      "name": "createWrapper",
      "outputs": [],
      "payable": false,
      "stateMutability": "nonpayable",
      "type": "function"
    },
    {
      "constant": true,
      "inputs": [
        {
          "internalType": "uint16",
          "name": "proto",
          "type": "uint16"
        },
        {
          "internalType": "uint8",
          "name": "quality",
          "type": "uint8"
        }
      ],
      "name": "getWrapperAddress",
      "outputs": [
        {
          "internalType": "address",
          "name": "",
          "type": "address"
        }
      ],
      "payable": false,
      "stateMutability": "view",
      "type": "function"
    },
    {
      "constant": true,
      "inputs": [
        {
          "internalType": "address",
          "name": "wrapper",
          "type": "address"
        }
      ],
      "name": "isValidWrapper",
      "outputs": [
        {
          "internalType": "bool",
          "name": "",
          "type": "bool"
        }
      ],
      "payable": false,
      "stateMutability": "view",
      "type": "function"
    },
    {
      "constant": false,
      "inputs": [
        {
          "internalType": "address",
          "name": "from",
          "type": "address"
        },
        {
          "internalType": "address",
          "name": "to",
          "type": "address"
        },
        {
          "internalType": "uint256[]",
          "name": "cardIds",
          "type": "uint256[]"
        }
      ],
      "name": "transferAllFrom",
      "outputs": [],
      "payable": false,
      "stateMutability": "nonpayable",
      "type": "function"
    }
  ],
  "bytecode": "0x608060405234801561001057600080fd5b506040516108033803806108038339818101604052606081101561003357600080fd5b5080516020820151604090920151600080546001600160a01b039384166001600160a01b03199182161790915560018054948416948216949094179093556002805492909116919092161790556107748061008f6000396000f3fe608060405234801561001057600080fd5b506004361061007d5760003560e01c80636b1b68f41161005b5780636b1b68f41461019e5780638bdb2afa146101c85780639ee407da146101d0578063d4b83992146101fa5761007d565b80630bbe0ee3146100825780631789ebfb1461014057806358a4903f1461017a575b600080fd5b61013e6004803603606081101561009857600080fd5b6001600160a01b0382358116926020810135909116918101906060810160408201356401000000008111156100cc57600080fd5b8201836020820111156100de57600080fd5b8035906020019184602083028401116401000000008311171561010057600080fd5b919080806020026020016040519081016040528093929190818152602001838360200280828437600092019190915250929550610202945050505050565b005b6101666004803603602081101561015657600080fd5b50356001600160a01b031661031f565b604080519115158252519081900360200190f35b61018261033d565b604080516001600160a01b039092168252519081900360200190f35b61013e600480360360408110156101b457600080fd5b50803561ffff16906020013560ff1661034c565b610182610635565b610182600480360360408110156101e657600080fd5b50803561ffff16906020013560ff16610644565b610182610675565b61020b3361031f565b6102465760405162461bcd60e51b81526004018080602001828103825260308152602001806107106030913960400191505060405180910390fd5b6001546040517f0bbe0ee30000000000000000000000000000000000000000000000000000000081526001600160a01b038581166004830190815285821660248401526060604484019081528551606485015285519290941693630bbe0ee393889388938893909290916084909101906020808601910280838360005b838110156102db5781810151838201526020016102c3565b50505050905001945050505050600060405180830381600087803b15801561030257600080fd5b505af1158015610316573d6000803e3d6000fd5b50505050505050565b6001600160a01b031660009081526004602052604090205460ff1690565b6001546001600160a01b031681565b60006103588383610644565b6001600160a01b03161461039d5760405162461bcd60e51b81526004018080602001828103825260228152602001806106ee6022913960400191505060405180910390fd5b600080546103b3906001600160a01b0316610684565b600254604080517f06f2bf620000000000000000000000000000000000000000000000000000000081526001600160a01b038085166004830152915193945060009391909216916306f2bf62916024808301926020929190829003018186803b15801561041f57600080fd5b505afa158015610433573d6000803e3d6000fd5b505050506040513d602081101561044957600080fd5b505161ffff8516600090815260036020908152604080832060ff88168452825280832080547fffffffffffffffffffffffff0000000000000000000000000000000000000000166001600160a01b0388811691821790925584526004909252909120805460ff19166001179055909150811661055657600254604080517f1648f38e0000000000000000000000000000000000000000000000000000000081526001600160a01b03858116600483015291519190921691631648f38e9160248083019260209291908290030181600087803b15801561052757600080fd5b505af115801561053b573d6000803e3d6000fd5b505050506040513d602081101561055157600080fd5b505190505b600154604080517fd4eb30f80000000000000000000000000000000000000000000000000000000081526001600160a01b03928316600482015261ffff8716602482015260ff86166044820152838316606482015290519184169163d4eb30f89160848082019260009290919082900301818387803b1580156105d857600080fd5b505af11580156105ec573d6000803e3d6000fd5b50505050816001600160a01b03168360ff168561ffff167f51e2587ce5c4acf9e56bd41741c013f08b2052bc81328643a8d563f59b6b749560405160405180910390a450505050565b6002546001600160a01b031681565b61ffff8216600090815260036020908152604080832060ff851684529091529020546001600160a01b031692915050565b6000546001600160a01b031681565b6000808260601b90506040517f3d602d80600a3d3981f3363d3d373d3d3d363d7300000000000000000000000081528160148201527f5af43d82803e903d91602b57fd5bf3000000000000000000000000000000000060288201526037816000f094935050505056fe466163746f72793a5772617070657220697320616c726561647920637265617465644361726457726170706572466163746f72793a53656e646572206973206e6f7420612076616c69642077726170706572a265627a7a72315820e3d3868ee5d5d8d479c9335386f6b9ea0341db2746c73263f5c7fce9c0e7f5f764736f6c634300050c0032",
  "source": "pragma solidity 0.5.12;\n\nimport '@optionality.io/clone-factory/contracts/CloneFactory.sol';\n\nimport './interfaces/IUniswapFactory.sol';\nimport './interfaces/ICards.sol';\nimport './interfaces/IUniswapExchange.sol';\n\nimport './CardERC20Wrapper.sol';\n\ncontract CardERC20WrapperFactory is CloneFactory {\n\n    // State\n    address public target;\n    ICards public cards;\n    IUniswapFactory public uniswapFactory;\n    mapping(uint16 => mapping(uint8 => address)) _protoQualityToTokenAddress;\n    mapping(address => bool) _validWrapperAddresses;\n    // Events\n    event WrapperCreated(uint16 indexed proto, uint8 indexed quality, address indexed tokenAddress);\n\n    constructor(address _target, ICards _cards, IUniswapFactory _uniswapFactory) public {\n        target = _target;\n        cards = _cards;\n        uniswapFactory = _uniswapFactory;\n    }\n\n    function createWrapper(uint16 proto, uint8 quality) external {\n        require(getWrapperAddress(proto, quality) == address(0x0), 'Factory:Wrapper is already created');\n\n        CardERC20Wrapper newCardWrapper = CardERC20Wrapper(createClone(target));\n\n        address uniswapExchange = uniswapFactory.getExchange(address(newCardWrapper));\n\n        _protoQualityToTokenAddress[proto][quality] = address(newCardWrapper);\n        _validWrapperAddresses[address(newCardWrapper)] = true;\n\n        if(uniswapExchange == address(0x0)){\n            uniswapExchange = uniswapFactory.createExchange(address(newCardWrapper));\n        }\n\n        newCardWrapper.init(cards, proto, quality, IUniswapExchange(uniswapExchange));\n\n        emit WrapperCreated(proto, quality, address(newCardWrapper));\n    }\n\n    function getWrapperAddress(uint16 proto, uint8 quality) public view returns (address) {\n        return _protoQualityToTokenAddress[proto][quality];\n    }\n\n    function isValidWrapper(address wrapper) public view returns (bool) {\n        return _validWrapperAddresses[wrapper];\n    }\n\n    function transferAllFrom(address from, address to, uint256[] memory cardIds) public {\n        require(isValidWrapper(msg.sender), 'CardWrapperFactory:Sender is not a valid wrapper');\n        cards.transferAllFrom(from, to, cardIds);\n    }\n\n}",
  "sourcePath": "/home/nate/workspace/gu-uniswap/contracts/contracts/CardERC20WrapperFactory.sol",
  "compiler": {
    "name": "solc",
    "version": "0.5.12+commit.7709ece9.Emscripten.clang"
  },
  "schemaVersion": "3.0.19",
  "updatedAt": "2019-12-02T18:03:07.244Z",
  "networkType": "ethereum",
  "devdoc": {
    "methods": {}
  },
  "userdoc": {
    "methods": {}
  }
}