{
  "contractName": "MultiForge",
  "abi": [
    {
      "inputs": [
        {
          "internalType": "address",
          "name": "_forge",
          "type": "address"
        }
      ],
      "payable": false,
      "stateMutability": "nonpayable",
      "type": "constructor"
    },
    {
      "constant": true,
      "inputs": [],
      "name": "forge",
      "outputs": [
        {
          "internalType": "contract IForge",
          "name": "",
          "type": "address"
        }
      ],
      "payable": false,
      "stateMutability": "view",
      "type": "function"
    }
  ],
  "bytecode": "0x608060405234801561001057600080fd5b506040516101623803806101628339818101604052602081101561003357600080fd5b8101908080519060200190929190505050806000806101000a81548173ffffffffffffffffffffffffffffffffffffffff021916908373ffffffffffffffffffffffffffffffffffffffff1602179055505060cf806100936000396000f3fe6080604052348015600f57600080fd5b506004361060285760003560e01c80636c6f423914602d575b600080fd5b60336075565b604051808273ffffffffffffffffffffffffffffffffffffffff1673ffffffffffffffffffffffffffffffffffffffff16815260200191505060405180910390f35b6000809054906101000a900473ffffffffffffffffffffffffffffffffffffffff168156fea265627a7a723158202209e3bfd233fe4120fa274254bc943d571a01c47bb51a272f79e952e1cf642464736f6c634300050c0032",
  "source": "pragma solidity 0.5.12;\n\nimport \"./interfaces/IForge.sol\";\n\ncontract MultiForge {\n    IForge public forge;\n    constructor(address _forge) public {\n        forge = IForge(_forge);\n    }\n}\n",
  "sourcePath": "/home/nate/workspace/gu-tools/contracts/MultiForge.sol",
  "compiler": {
    "name": "solc",
    "version": "0.5.12+commit.7709ece9.Emscripten.clang"
  },
  "schemaVersion": "3.0.19",
  "updatedAt": "2019-11-27T16:45:04.559Z",
  "devdoc": {
    "methods": {}
  },
  "userdoc": {
    "methods": {}
  }
}